:020000041000EA
:1000000000B5324B212058609868022188439860DF
:10001000D860186158612E4B002199600421596104
:100020000121F02299502B49196001219960352056
:1000300000F044F80222904214D00621196600F024
:1000400034F8196E01211966002018661A6600F04E
:100050002CF8196E196E196E052000F02FF8012189
:100060000842F9D1002199601B49196000215960AB
:100070001A491B48016001219960EB211966A021F2
:10008000196600F012F800219960164914480160C1
:100090000121996001BC002800D000471248134993
:1000A000086003C880F30888084703B5996A0420EC
:1000B0000142FBD001200142F8D103BD02B5186610
:1000C0001866FFF7F2FF186E186E02BD00000240BE
:1000D000000000180000070000035F00212200005C
:1000E000F4000018222000A00001001008ED00E03C
:1000F000000000000000000000000000070B8FD58A
:1001000000200420F7010010C3010010C5010010F9
:10011000C1010010C1010010C1010010C101001097
:10012000C1010010C1010010C1010010C701001081
:10013000C1010010C1010010C9010010CB01001065
:10014000CD010010CD010010CD010010CD01001037
:10015000CD010010CD010010CD010010CD01001027
:10016000CD010010CD010010CD010010CD01001017
:10017000CD010010CD010010CD010010CD01001007
:10018000CD010010CD010010CD010010CD010010F7
:10019000CD010010CD010010CD010010CD010010E7
:1001A000CD010010CD010010CD010010CD010010D7
:1001B000CD010010CD010010CD010010CD010010C7
:1001C00000BE00BE00BE00BE00BE00BEEFF3058054
:1001D000103800BEF2EB8871DCB6001008B70010D2
:1001E0003802001090A31AE71E481F49086006C88D
:1001F00081F3088810471D480068002801D019487D
:10020000F3E70DA40ECC002902D000F012F8F9E7B4
:100210001749184A002000E001C19142FCD116495B
:100220008847164988471649884700BEFDE701C937
:1002300001C29A42FBD3704708B70010C0000020EB
:10024000080F002050C5001000000420000004200A
:1002500050C5001000100420001004200000000011
:10026000704700000000000008ED00E0000000D032
:10027000080F0020744200206D4F0010550300103D
:10028000654F0010F8B5C04606480749091A8B109B
:10029000C90FC91810B5491003D0044B002B00D06A
:1002A000984710BD080F0020080F00200000000034
:1002B000054B10B5002B03D00449054800E000BFF2
:1002C000FFF7E2FF10BDC04600000000184100200B
:1002D0009CB0001030B503780400053BDBB283B05E
:1002E000052B09D8184A9B00D3589F464278174BD4
:1002F0001A700122164B1A70002003B030BD03792A
:1003000082784178C07800F0B5FBF5E70022002143
:10031000002002F099FBEFE700254378C2780195B1
:10032000A478043989B20430009400F043FBE3E779
:1003300002254378C2780195A478043989B2043043
:10034000009400F037FBD7E7A0B000106F42002008
:100350006E42002070B582B000F0BEF909F07CFE5C
:1003600004F042FF104D04262B78104C002B0BD1CB
:100370006B46012101A81E7100F016FB200000F061
:10038000D3F92B78002BF3D009F05AFB0120002180
:10039000404207F0C7F8200000F0C6F900F098FBD3
:1003A00000F034FCF2E7C0466E420020D502001097
:1003B000F0B5C64600B580460F0016001C0000F0E0
:1003C00003FC0323084D22002B7043463100E81C38
:1003D00003346B70AF7003F029F92800A1B200F06C
:1003E000E3FA80BCB846F0BDA83C0020F0B5C64694
:1003F0001C0000B5904606000F0000F0E5FB03234B
:100400000A4D22004146E81C03342B706E70AF7019
:1004100003F00CF92800A1B200F0C6FA3900300050
:1004200008F0C4FD80BCB846F0BDC046A83C002022
:10043000F0B5C64600B50E0011006A461D006B46B9
:10044000177F08AA12780F4C90461B8B6070000A29
:10045000A070180A607101222000A3714346227027
:10046000E6702A00360A093509302671E7712372D1
:1004700003F0DCF8A9B20022200000F0FDF980BCF6
:10048000B846F0BDA83C0020F0B5DE4657464E46C3
:100490004546E0B5060087B025480F0090461D0090
:1004A00004F0F2FE6B46DC1D2200991D300006F0C0
:1004B000A1FD0A236B44994602AB4A46190030005D
:1004C0009A4606F059FD03AB9B461A0039003000EE
:1004D00008F0D0FC5B46D978534601222078154CB1
:1004E0001B8822704A4663701B0AA3704B46E0715A
:1004F000200012881B78120A227121722A004146BC
:1005000009350930E3706671A77103F08FF8002296
:10051000A9B2200000F0B0F93900300008F046FD23
:1005200007B0F0BCBB46B246A946A046F0BDC046E7
:10053000B8B00010A83C0020022200B583B001AB87
:100540001A705870997000220321180000F094F975
:1005500003B000BD30B5050083B00C000A000748A9
:10056000290004F015FF022301A8002203210370D3
:100570004570847000F080F903B030BDCCB000103D
:1005800000B583B008236A46012101A8137100F069
:100590000BFA03B000BDC04670B504AB0E0002CB31
:1005A000084C1D880B236070E270201D2A00043562
:1005B0002370A67003F03AF8A9B20022200000F0E0
:1005C0005BF970BDA83C002070B504000C25054BFC
:1005D0009970DA701800002204211D705C7000F020
:1005E0004BF970BDA83C002070B582B0040000F04B
:1005F000EBFA6B46DE1D3200991D200006F0FAFC76
:100600000D23094D2B703378AE1C6B7003E006216F
:10061000280000F0C9F93100200009F0BDFF0028D2
:10062000F5D102B070BDC046A83C002030B500290D
:1006300010DD0122FF24084D411852420378013099
:10064000534023409B00EB58120A5A408142F5D197
:10065000D04330BD0020FCE7800400201949F0B5EC
:100660000B88002B14D1184A9469A40605D42021C4
:1006700093691942FCD1106009E0144C144D228892
:100680000133A8540132D205D20D22800B80F0BD77
:10069000802292009342F0D320210E4E0C4D3488DC
:1006A000094A2F5D93691942FCD11760074A01344A
:1006B0001388E405E8540133DB05E40DDB0D3480D9
:1006C0001380E4E760420020008003405E42002087
:1006D000501D00205C42002010B5104C1049200035
:1006E00001F0C8FFC023226B1B0293430D4A200078
:1006F0001360002102F04EF80221042001F00CF8F2
:100700000221052001F008F80221062001F004F87A
:100710000221072001F000F810BDC0460080034010
:1007200000093D0030900340F0B54646D6464F469E
:10073000494BC0B51C88824600269846002C20D024
:100740002021464B464A9C46188893690025454F10
:10075000194210D13D5C93691942FCD10130013C32
:10076000C005A4B21560C00D0125002C4CD09369C2
:1007700026001942EED0002D03D063461880434670
:100780001E80374B9B69DB0625D4374B374C984688
:10079000374D88212088890002F0FAFA10200F00D6
:1007A0002F4A89B2218093691842FCD113682E78B0
:1007B000DBB2002E15D0013189B2DC2B1AD0DD2B33
:1007C00000D1DB234246D355002321802B70244BDC
:1007D0009B69DB06DDD50020E0BCBA46B146A846E1
:1007E000F0BDC02B0BD0DB2B06D04246013121805F
:1007F000D355ECE7C023E5E701232B70E7E7042F8F
:1008000007D800232380E2E76346188043461C8014
:10081000B7E7154B391F99461800FFF707FF4B46FE
:1008200021885A18531E971E1B783F781B023B43A2
:10083000D71E3F781B02043A12783B431B02134336
:10084000984203D00B4804F01FFDDAE7043948460C
:1008500089B2D0472680BFE7604200205C4200207A
:1008600000800340501D00209C2100206242002097
:1008700069420020E8B00010F8B506000D00140031
:10088000FFF7D4FE0700002C34D0AA1D92B2002D31
:1008900000D184E0002305E0DB2906D0013399B2C2
:1008A0008D4208D9F15CC029F6D10133013299B2E9
:1008B00092B28D42F6D8FBB2C02B5CD0DB2B5AD063
:1008C0003B0ADBB2C02B5CD0DB2B5AD03B0CDBB23B
:1008D000C02B5CD0DB2B5AD03B0EC02B5CD0DB2B6B
:1008E0005AD0304B198880239B005B1A9A4201DD55
:1008F00000202AE0C020FFF7B1FE002D14D0002414
:1009000006E0DB2822D0FFF7A9FE0134A5420BDD6B
:10091000305DC028F5D1DB20FFF7A0FE0134DC20DC
:10092000FFF79CFEA542F3DC00243800E040C0B293
:10093000C02819D0DB2810D0FFF790FE0834202CF7
:10094000F3D1C020FFF78AFE0120F8BDDB20FFF7BE
:1009500085FEDD20FFF782FED7E7DB20FFF77EFE76
:10096000DD20FFF77BFEE9E7DB20FFF777FEDC20E9
:10097000FFF774FEE2E73B0A0132DBB292B2C02B12
:10098000A2D13B0C0132DBB292B2C02BA2D1013218
:1009900092B23B0EC02BA2D1013292B2A1E7062245
:1009A00089E7C0466042002010B50122FFF764FFCE
:1009B00010BDC046F8B557464E464546DE46E0B542
:1009C000844618000AAB1B78264F9A460BAB1B785F
:1009D0003D785BB29946082D3FD0002A25D14029A9
:1009E0001DDC214B1E789846F400204BA419E4002E
:1009F000E0549B461819534643704B4607348270A7
:100A000081808371200058440A00614602F00EFE86
:100A10000723424601363340013513703D70F0BC68
:100A2000BB46B246A946A046F8BD3F29F7DC0E4BAF
:100A30000E4C1E789846F3009B19DB009B46185518
:100A4000E018534643704B1C83804B4683715B46D2
:100A500008338270C2711819D6E7054804F014FCF7
:100A6000DDE7C0466842002066420020501F00209B
:100A7000F4B00010F0B5C64600B5114C2778A44676
:100A8000082F18D00F4C01372678A046F5000E4CE1
:100A9000AD19ED002955641962700122A380072366
:100AA000A27142460136334013706346A0701F7036
:100AB00080BCB846F0BD054804F0E6FBF8E7C04648
:100AC0006842002066420020501F0020F4B0001051
:100AD000F0B5CE46474680B5284C83B02378002B2E
:100AE0002DD0274E3378002B29D00621254F2648BC
:100AF0003B78DD009846EB18DB00C2185156002900
:100B000022D1C35C51789C46022399469278454491
:100B1000ED0043199B8807354519019360464B4604
:100B2000009508F00DFA002809D000233A783370B8
:100B30000132073313403B702378013B237003B02D
:100B4000C0BCB946B046F0BD02290FD00129F6D18C
:100B5000C05C93889578517801930C4B2A000093E0
:100B6000032308F0B7F90028E9D0DEE7C35C517829
:100B70009C46032392789946C9E7C0466842002004
:100B80008008002065420020501F0020101D00201A
:100B900010B50124024B1C70FFF716FD10BDC046B6
:100BA0008008002070B582B06C460126258B044C6D
:100BB0002670044C01950094FFF7EEFC02B070BD66
:100BC00080080020101D002070B50C4C2378002BED
:100BD0000FD001220A4B01201A70002500F0BAF84C
:100BE00001F0FAFC074C084B001969411860596084
:100BF00070BD00F033F801232370EAE7644200205F
:100C00006742002050C30000080F002070B5104C50
:100C10002378002B00D170BD01F0DEFC0D4A536833
:100C20008B4209D20C4D2B78002B0BD000230020D7
:100C3000237000F08FF8EEE78B42ECD1136883420B
:100C4000E9D2EFE700F00AF801232B70EEE7C04687
:100C500067420020080F002064420020F0B5C6461D
:100C600000B5324C324886B00121206004F0B0FC5F
:100C7000304D31492860206804F0C6FC2F4B2168B4
:100C80009C4661442E4E090D06313060C9B21020D9
:100C900000F042FD0123296810222068009304F02F
:100CA0002FFD802332685B020293D31C1B03D20109
:100CB0001343244A052013400393234B0593234BEE
:100CC000049301F069FE02F01BFC214902F0FDFBD8
:100CD000EC21890502F0F6FB804602F039FC87B270
:100CE0000023002F0ED0380002F00AFC011C404601
:100CF00002F0E5FB8721C90502F0FBFB02F028FCAE
:100D0000C3B21B023F04326829681F43206802AB4C
:100D1000029704F04FFD0123286822688340116880
:100D20000B43136006B080BCB846F0BD9421002090
:100D30000000205090210020E0B200100000E0AF41
:100D400098210020FFFFFF9F004000200000067058
:100D50000024F44A434258410A4B404218400A4B8F
:100D600010B59C46094B01221968094B60441C6868
:100D7000230010339A404B681A42FCD10434A4007B
:100D8000605010BD007EFFB40082004B9421002013
:100D9000902100200223037000487047840800203F
:100DA00001207047F0B54546DE4657464E46E0B551
:100DB000157985B0E800401B0930834222D3574C97
:100DC000607800286AD05120205C002868D0A120DB
:100DD000205C002866D0F120205C002864D04220EE
:100DE000FF30205C002815D09220FF30205C0028C6
:100DF0005CD0E220FF30205C002859D04848205CBD
:100E0000002849D0002005B0F0BCBB46B246A94638
:100E1000A046F0BD0420022DF4D15579FF2DF1D16B
:100E20009579472D67D05D2DECD1D579012DE9D18C
:100E300001268500AB462D182D0166551678D5186C
:100E40009619AE425DD200230394984699469A467D
:100E500003270C0000930190029203E03378F61808
:100E6000AE422AD27378052BF8D1F3783B40032B9E
:100E7000F4D13100200006F051FF0028C2D0737970
:100E800031791B020B43B2785B055B0DD109012957
:100E900010D098469146E1E70730BCE70020BAE75A
:100EA0000120B8E70220B6E70320B4E70520B2E747
:100EB0000620B0E79A460092D0E75B4621000198F1
:100EC000039C1B181B01E318029A597092789A70C0
:100ED000009ADA705346402B01D940239A4603000A
:100EE00052465B441B01E3189A804A469A71424677
:100EF00001201A8187E7D5790226D02D00D081E71D
:100F000097E750234343E318597092789A70002270
:100F1000924690469146DA70E1E7C046100F0020F5
:100F200031020000F0B5C64600B5624C020063789D
:100F300086B0984223D05123E35C9A4248D0A12343
:100F4000E35C9A424AD0F123E35C9A424CD04223BC
:100F5000FF33E35C9A424DD09223FF33E35C9A4225
:100F60004FD0E223FF33E35C9A4251D0524B002032
:100F7000E35C9A4253D006B080BCB846F0BDA0787E
:100F80008842D8D10027BE00F5192D016257012AE9
:100F90004BD0022A1AD16519013A1800A979EA60E2
:100FA00006F03CFE002811D00023A9796878434A56
:100FB00001930093053306F079FE002806D15023F3
:100FC0007B43E3189979587806F04CFE0120D2E76C
:100FD0005220205C8842B2D10127D4E7A220205CB5
:100FE0008842B0D10227CEE7F220205C8842AED101
:100FF0000327C8E7A1204000205C8842ACD1042729
:10100000C1E7C9204000205C8842AAD10527BAE781
:10101000F1204000205C8842A8D10627B3E7284A87
:101020000727A25C8A42A6D1ADE762191800D178E1
:10103000904606F0F3FD002810D043469B882A0016
:101040009C464346D9785878002310320193009388
:10105000A218634606F02AFE002824D01723162182
:101060006B449846F6193601A6191A00694470783F
:1010700005F0C0FFB3786419029343461B78114A08
:101080000193A37861781B020B435BBA9BB20E49B4
:101090000E4800937F23FFF7CBF97078B17806F004
:1010A0000BFF012067E74346D978587806F0DAFD50
:1010B000D4E7C046100F002031020000CC08002009
:1010C00032020000F0B200108E0200005E04000048
:1010D000F0B54F464646D646C0B5B54D02006C78D1
:1010E0000F001E008AB0A04228D05123EC5CA2421F
:1010F00032D0A123EC5CA2424ED0F123EC5CA242A0
:101100005AD04223FF33EC5CA24265D09223FF33D6
:10111000EC5CA24200D172E0E223FF33EC5CA2421D
:1011200000D17FE0A34B0020EC5CA24200D18CE018
:101130000AB0E0BCBA46B146A846F0BDE9788F4295
:1011400000D14CE1AB79BB42CFD10023EB56012B50
:1011500020D0002291460EE00233E95C8F4200D19C
:10116000AFE00333EB5CBB42C3D15023EB56012B02
:1011700010D001229146022B0CD18F4200D1AAE05F
:101180004B469B009A4654464C4424012B199A79AD
:10119000BA426CD00120CBE70233E95C8F4200D128
:1011A000CEE00333EB5CBB42A7D1A023EB56012B6F
:1011B000F0D002229146DEE70233E95C8F4200D193
:1011C000D5E00333EB5CBB429BD1F023EB56012B04
:1011D000E0D003229146CEE74423FF33E95C8F42FF
:1011E00000D1CFE00333EB5CBB4200D08EE7A023FD
:1011F0005B00EB56012BCDD004229146BBE7942334
:10120000FF33E95C8F4200D1A5E00333EB5CBB42C6
:1012100000D081E7C8235B00EB56012BBAD0052232
:101220009146A8E7E423FF33E95C8F4200D1CBE08D
:101230000333EB5CBB4200D074E7F0235B00EB565A
:10124000012BA7D00622914695E75B4BE95C8F42C4
:1012500000D1A2E0594BEB5CBB4200D068E78C2385
:101260009B00EB56012B95D00722914683E7DA6865
:10127000002A8FD00132DA60032A00D170E100DD4C
:1012800007E1022A00D085E73900587806F0C6FC4D
:10129000002800D17EE74B4650245C4300232C19E4
:1012A000A1796078464A01930093053306F0FEFC6D
:1012B000002800D06EE7A179607806F0D3FC012009
:1012C00036E75023EB56012B00D1D2E0022B00D0A1
:1012D00060E7012399464B469B009A46002E13D0A7
:1012E0004B441B01EB18374A198A914200D10EE199
:1012F00053464B441B01EB181A7C202A00D179E09D
:10130000072A00D176E0D978200006F087FC002873
:1013100000D138E7524600264A441201AC18103278
:10132000A388E1786078AA180196009606F0BEFCC2
:10133000002800D027E7E178607806F093FC22E7E8
:10134000A023EB56012B00D18FE0022B00D021E728
:1013500002239946BFE7C8235B00EB56012B00D15F
:1013600085E0022B00D015E705239946B3E7F0236B
:10137000EB56012B00D17EE0022B00D00AE70323BD
:101380009946A8E7A0235B00EB56012B69D0022BFE
:1013900000D0FFE6042399469DE7033BEB56012B63
:1013A00061D0022B00D0F5E60723994693E7C046AB
:1013B000100F00203102000033020000360200004E
:1013C000C408002007300000F0235B00EB56012B1F
:1013D0001FD0022B00D0DDE6062399467BE70023D1
:1013E000EB56012B00D1D4E0022B00D0D2E6002333
:1013F000994670E7B3B256464E4436013200AE19F4
:1014000010322000B178AA18FEF7D2FF7478F17874
:101410007AE70627002E07D0BA00D2191201AB18BE
:1014200098461B7C002B28D0200006F0F7FB0028F4
:1014300000D1AFE6BA00D2191201AC181032AA18C6
:101440000025A388E17860780195009506F02EFCD0
:10145000002800D09EE6E178607806F003FC0120C9
:1014600066E60427D6E70727D4E70227D2E7052751
:10147000D0E70127CEE70327CCE741461032200012
:101480008978B3B2AA18FEF793FF43465C78D978FF
:10149000CAE7042A00D07DE60027D9785878DF60B3
:1014A00006F0BCFB00280FD04B46502622005E43BE
:1014B0001032AE19B388F1787078AA1801970097A6
:1014C00006F0F4FBB84266D0564617214E4436016A
:1014D000AE1906AF3A006944707805F08BFDB37819
:1014E0002C1902933B78314A0193A37861781B024F
:1014F0000B435BBA9BB22E492E4800938923FEF71B
:1015000097FF7078B17806F0D7FC012010E606AAA4
:1015100090464146284A20000A800922CA70274A7C
:101520000792002208920A739A7C8A70997906F0D1
:1015300075FB00280ED04B46502400225C432C192A
:10154000A17960780D2301920092424606F0AEFB2D
:10155000002825D053464B441B01EB185C78C7E6A6
:101560003900587806F05AFB002800D112E64B46A5
:1015700050245C4300232C19A1796078104A019310
:101580000093063306F092FB002800D193E6012079
:10159000CEE500273EE7F178707806F063FB93E72D
:1015A000A179607806F05EFBD4E7C04670B3001006
:1015B000120B00005E040000012000000007200262
:1015C000BC08002070B5514D04006B78834220D0D8
:1015D0005123EB5CA34228D0A123EB5CA34233D080
:1015E000F123EB5CA3423ED04223FF33EB5CA342EA
:1015F00049D09223FF33EB5CA34256D0E223FF3362
:10160000EB5CA34263D0424BEB5CA34200D170E0A1
:1016100070BDA978FEF790FF50220021280001F04C
:10162000FFFF5123EB5CA342D6D152232000E95C9B
:10163000FEF782FF280050220021503001F0F0FF19
:10164000A123EB5CA342CBD1A2232000E95CFEF7EF
:1016500073FF280050220021A03001F0E1FFF123A8
:10166000EB5CA342C0D1F2232000E95CFEF764FFEB
:10167000280050220021F03001F0D2FF4223FF3336
:10168000EB5CA342B5D1A1235B00E95C2000FEF72F
:1016900053FF2800413050220021FF3001F0C0FFED
:1016A0009223FF33EB5CA342A8D1C9235B00E95C22
:1016B0002000FEF741FF2800913050220021FF302A
:1016C00001F0AEFFE223FF33EB5CA3429BD1F12399
:1016D0005B00E95C2000FEF72FFF2800E13050227C
:1016E0000021FF3001F09CFF094BEB5CA34200D0CE
:1016F0008EE7084B2000E95CFEF71EFF8C239B0061
:1017000050220021E81801F08BFF81E7100F002024
:101710003102000032020000094A83009A1810B515
:1017200014684022544080322240064CC000A44637
:1017300063441A60044B9C466044416010BDC0463F
:1017400004C0014004D00140004001400FB400B586
:10175000084883B003F098FD049B002B07D005A92F
:101760001800019103F0CAFB034803F08DFD01202E
:1017700003F0DCFB04B1001014B10010EFF3108093
:1017800072B6034A1368002BFCD0BFF35F8F70471B
:101790002C0100D0BFF35F8F0022024B1A6080F350
:1017A000108870472C0100D070B5EFF3108C72B622
:1017B0000D4D2B68002BFCD0BFF35F8F0724CB08A7
:1017C000C618C05C01230C40A3401C000440034227
:1017D00007D118433070BFF35F8F2C608CF31088F3
:1017E00070BD1000FFF7B2FF2C0100D0F8B54746DE
:1017F000CE46884680B5EFF3108C72B61C4D2C682F
:10180000002CFCD0BFF35F8F9A4222D8072101261B
:10181000894602E00132934218D34D463700154005
:10182000AF40D4080119045D2742F3D110003C43B6
:101830000C70BFF35F8F00220D4B1A608CF3108881
:1018400000280EDBC0BCB946B046F8BD01204042BE
:10185000EFE7BFF35F8F00232B608CF3108801202C
:1018600040424346002BEDD00898FFF76FFFC0467B
:101870002C0100D0044A1078431CDBB2172B00D98E
:10188000102313707047C046D108002010B5064BD6
:10189000064C82B00100009318221F232000FFF79E
:1018A000A5FF02B010BDC04618B10010BC3E00201C
:1018B0000021044B044ABFF35F8F02C39342FAD165
:1018C0007047C046000100D0800100D0054B064A99
:1018D0001360064A136053609360D36013615361D1
:1018E000936170478080808000E400E004E400E0C1
:1018F0001F2318401E3B8340002905D0C021044A05
:101900004900535013607047802201498B50FAE719
:1019100000E100E070B50D00EFF3108672B60F4ADB
:101920001368002BFCD0BFF35F8F0D4B10309B680A
:1019300084001B590B4A934203D09D4201D001F011
:1019400021F9074B9B681D51BFF35F8FBFF35F8F7A
:101950000022024B1A6086F3108870BD240100D06B
:1019600000ED00E0CD010010F0B557464E46DE46D2
:101970004546E0B585B0060000911700EFF3108BE7
:1019800072B66A4A1368002BFCD0BFF35F8F002544
:10199000674B5D579A46002D00DAA9E06B00654C55
:1019A00001935B199B009846A146C1444B465246A1
:1019B0009B7910361370604BB6009B6899590B1BCE
:1019C0002F2B33D95D4B994200D0ACE0019B4246AE
:1019D0009C465B4B6544AD0063535A4B0232A218E0
:1019E000043B9B1A1B05584A5B0D651913436B801A
:1019F000564B0121AB80FF23AB71009BEF71AB60B5
:101A00004B460B4319004C4B9B689951BFF35F8FBA
:101A1000BFF35F8F0022454B1A608BF3108805B02F
:101A2000F0BCBB46B246A946A046F0BD01200A0064
:101A30008243D3798C46BB4231D845461300444992
:101A40001B1B5B415943090D3D4B63533D4B023515
:101A50006519043B5B1B1B053B4D5B0D2B43AA46E5
:101A60004D466B800425AC465546E044131F444464
:101A70001B1B1B055B0D1D434B46997100999D80F7
:101A800099604946DF71334B01431360BBE758004F
:101A9000C01880002018C179B9422FD9020006234E
:101AA000D356002BF3DA02932B4B61460393131D9D
:101AB0009A4604235B429C46E14450464B461B1A1F
:101AC0001B055B0D9C46204B95719846634640462E
:101AD00003439380019B5A199200039BA418A3808F
:101AE000029B1C4AA371009B2260E771A3608AE7F6
:101AF00001F048F8002553465D574FE79088029360
:101B00004005131D9A46031561469C464046D44441
:101B1000634604302018181AE0230005400D1B020C
:101B200018430390C5E701F02DF84FE7240100D0DA
:101B300070420020D408002000ED00E0CD0100102C
:101B400000A1FFFF0409002000E0FFFF01BDFFFF2F
:101B5000AAAA00000148804701BD0000F0B5DE469A
:101B600057464E464546E0B50C0083B0EFF310886B
:101B700072B6634A1368002BFCD0BFF35F8F614BD2
:101B800061499A68030010339F00D55901938D4233
:101B900043D0A54254D05D4EAA1B2F2A3DD85C4BA2
:101BA0009B461B68994601231A009C4682404B467F
:101BB00013401F2299466346024093409A46802272
:101BC0005B4650469850BFF35F8FEFF305839B460B
:101BD000002B37D0019B5B4501D000F0D3FF0123E0
:101BE0002A009A439068844208D176E04B005B1843
:101BF0009B00F3189868844236D01A00062151568B
:101C00000029F3DA844254D04B46002B27D0C0225F
:101C100051463F4B5200995019603A4B9B68DD5139
:101C2000BFF35F8FBFF35F8F0022354B1A6088F3DD
:101C3000108803B0F0BCBB46B246A946A046F0BD32
:101C40000D00EAE72A0063469A4390688442D5D1A2
:101C500006201056130000280ADA0D0031E0802318
:101C600051462B4AD150D8E706201856002821DBD0
:101C700042001118890074188B46A1689960E179B7
:101C8000D971062161569971002924DBA488F11AC3
:101C9000640524155C44091909051E4C490D2143AE
:101CA000998013181C4A9B001178F31899711070D1
:101CB000AAE713005946002914D1FF319171174941
:101CC000918015490A789A71154A9B1B5B415A43CA
:101CD000120D0A7098E71149E2E70620105613002A
:101CE0000028C5DA0F4A1049D21A083A5002400DAE
:101CF000014399800D4952080A43DA8084E7C046BF
:101D0000240100D000ED00E0CD010010D408002037
:101D100000E100E000E0FFFF7042002001BDFFFF96
:101D2000AAAA00000E09002000F0FFFF00F8FFFF44
:101D300070B501240443EFF30581EFF3108C72B604
:101D4000214A1368002BFCD0BFF35F8F1F4B0500A7
:101D50001F4AED1A6D416A43120D1E4D8900AE688F
:101D600052B27658A6421CD00621595691421CD038
:101D700012215956914222D01E215956914220D00B
:101D80002A2159560324914210D0134B19781A7006
:101D90008171BFF35F8F00220B4B1A608CF31088A8
:101DA00070BDAB680D4C5C50EFE700246100091971
:101DB00089005B18FF21997109499980E5E70124A1
:101DC000F4E70224F2E7C046240100D0D408002042
:101DD000AAAA000000ED00E070420020CD01001032
:101DE00001BDFFFF024B9C466144890001607047C2
:101DF0004000003470B5114C114DAC420FD2FF269B
:101E00002368002B0CD0FFF735FD01002000FFF701
:101E1000E9FFA680BFF35F8F0834AC42F0D370BDFA
:101E2000FFF728FD01002000FFF7DCFF2671BFF35C
:101E30005F8F0834AC42E3D3F1E7C046000F0020C7
:101E4000080F002010B50400FFF714FD010020006A
:101E5000FFF7C8FFFF232371BFF35F8F10BDC0469C
:101E600010B504000120FFF711FD034BC3189B00C0
:101E70002360BFF35F8F10BD400000340A4B196828
:101E8000EFF3108072B60A68002AFCD0BFF35F8FB0
:101E90001B68BFF35F8F00221A6080F3108840BF79
:101EA000002000217047C0464C420020F0B5DE46BD
:101EB00057464E464546E0B587B0EFF3058303220B
:101EC00001251A40954091008846A946B34B0392DC
:101ED0005C58B34B1D60B34B04934B46B24843630D
:101EE0000823E55E002D37DAA3881BB2002B00DB48
:101EF000ADE0A379002B00D0EEE00823E05E0028DF
:101F000020DB430062691B18DB00D3189E68DD6884
:101F1000731C00D111E1A44801004144826A0B699D
:101F2000B71A9B1A9F4215D30123026A0398834074
:101F30001A420FD09C4800F047FB8D4202DCCCD106
:101F40008642CAD940BF07B0F0BCBB46B246A946DC
:101F5000A046F0BD0E61EDE762696B0092465B1929
:101F6000DB009A4453469E68DF6800F02DFB8F42E9
:101F7000BADC00D103E1002F00DAE8E05246534614
:101F800052691B699346049A934200D1D9E05246A4
:101F90000821605E5288000459461043984700901B
:101FA00001910099019A0B001000134300D1CEE07B
:101FB00013000A00B61A9F41002806DB7A4800F099
:101FC00003FB009E019F36184F4153469E60DF6021
:101FD00000229A5E002A00DA86E7530099186069A9
:101FE000C900411802938B68C9689B46B94200DD5D
:101FF0007AE702D1B34200D976E708239C46A4448D
:10200000059565462281A446029B2C0006E05300FC
:102010009918C90041188D68C968AB469B18DB0048
:10202000C318B94206DC00D1B3E01C000023E25E15
:10203000002AECDA230064469C4653461A80634625
:10204000059D1D80A3881BB2002B00DA51E7226991
:10205000EFF3108172B61368002BFCD0BFF35F8FD3
:102060000123A7885B42A3803FB22369BFF35F8F40
:1020700000221A6081F31088002F00DA39E723006C
:10208000083322009A4666697B00DB19DB00F318EF
:10209000996850468C460824115FDD68002910DBE2
:1020A000029306E0AB4244D00023E15E2000002909
:1020B00006DB4C006418E4003419E368AB42F1DD40
:1020C000029B078000201F5E1980002FDCDA1400BD
:1020D000A379002B00D110E70023A3712600082369
:1020E000E15E08364B1C00D12CE70800A24665696A
:1020F00002E03E004B1C1AD04B005B18DB00EF18CF
:102100000A008C46E95E7B881BB2002BF1DA0123C2
:102110005B42DC17BB60FC60824205D053463180D5
:102120001B893B8053461A8160464B1CE4D15446C0
:10213000E5E6A3686345B7D9C2E76B1C00D0EAE6C1
:10214000F8E65B4658461B69984700281BD1534662
:102150001B8822692381EFF3108372B6116800296E
:10216000FCD0BFF35F8F514662880A802269658088
:10217000BFF35F8F0021116083F31088B4E68642BD
:1021800000D8F8E6B0E65B461A685B6800920193F7
:1021900007E7B34500D848E74CE7C0463041002088
:1021A0003C700540AD1E00100040054070B52E4C3F
:1021B0002569002D04D00A212C48FFF713FE70BDBD
:1021C0002B4E0321300000F0F5F9E660FFF752FBDB
:1021D000284B03229C46D02322701B061B6801213A
:1021E0006370254B6044A3600F23800020610220B0
:1021F000638063694942A1801980023119864731A1
:102200001D83585218315A5275325C39995218321E
:1022100001319952183201319952183201319952D3
:10222000083518329D520231183299521832013154
:10223000995218320131995218320131995218329B
:10224000013199521832013199520C4B0C49DC6022
:1022500001303562FFF75EFB01210320FFF748FBE9
:10226000084B1D60A7E7C0461C0900204C42002017
:102270000040054040000034FFFF100030410020C6
:10228000AD1E00103860054070B501000469EFF321
:10229000108C72B620680028FCD0BFF35F8F02203C
:1022A0000D5E4C6968004019C00024180869002DB3
:1022B00036DB26884E80BFF35F8F002606608CF3E6
:1022C0001088E36063880498013320615B040598FB
:1022D0005B0CA26060611A1C002B1FD093B2280413
:1022E000628018430A69EFF3108C72B61368002BF2
:1022F000FCD0BFF35F8F8B8823808D800B69BFF389
:102300005F8F00221A608CF310880B7801329A409C
:10231000CB6808498C4663441A6070BD0122DDE732
:10232000BFF35F8F002303608CF3108801204042CD
:10233000F3E7C0463C20000010B543890A149342DD
:102340001ADD53009B184269DB00D3180469EFF3D0
:10235000108C72B62268002AFCD0BFF35F8F5A88B7
:10236000090494B2090C8A4208D00369BFF35F8F55
:1023700000221A608CF31088002010BD8022120207
:1023800014435C80012302698371BFF35F8F0021D6
:1023900011608CF31088044902788C469340C2681F
:1023A000012062441360E8E73C200000F0B5C64617
:1023B00000B582B0040000F00FF9FA2206000F0009
:1023C000200000230021920001F05CF8801979417F
:1023D00004000D1E02DA01242E4D644206267642C8
:1023E000F71736196F41AF4214D811D000F0F4F846
:1023F00032003B00121A8B41002B15DC002B46D01B
:102400002000290000F026F902B080BCB846F0BDDB
:10241000A642EBD90026002700F0DEF832003B0090
:10242000121A8B41002BE9DD00F0D6F832003B0098
:10243000121A8B41002B0ADB00230193164B32004A
:10244000009316483B00FFF71FFF0130D8D0002350
:102450003900B0469C46124A1248536A994204D841
:10246000966A4645CCD29942CAD10668EFF31087E6
:1024700072B63368002BFCD0BFF35F8F0368BFF3E5
:102480005F8F66461E6087F3108820BFE5E7002A4D
:10249000B6D0C9E7FFFFFF7F7D1E00101C0900209A
:1024A000004005404C420020F0B557464E46DE46FF
:1024B0004546E0B506000F0085B0EFF30583994669
:1024C0008B46002B12D0384900204B6ABB4206D302
:1024D0008A6ADB1B591E8B41B2424041184305B04A
:1024E000F0BCBB46B246A946A046F0BD2F4B9A466B
:1024F000DB68984653461B784046039300F064F827
:102500004246039B040004339B009B580D001B1A9A
:1025100039003000001BA941894510DC0DD020BFD7
:10252000214A0020536A5B45D9D3926ADB1B591EAE
:102530008B41B24240411843D1E78342EFD900F0CA
:102540004BF832003B00121A8B41002B1ADB0023A0
:102550000193174B3200009350463B00FFF794FE67
:10256000011E0FDD104B5A6A5A451BD39B6AB342BA
:1025700016D35046FFF7E0FE0B4A0020536A5B4536
:10258000ADD3D2E7084A0020536A5B45A7D30020A9
:10259000926ADB1BB24240415A1E934118439EE7A8
:1025A0005A45E6D120BFE4E7004005401C09002061
:1025B0007D1E001010B5024A0248FFF7F5F810BD65
:1025C00034B10010C03E00200300416A0A00986A3E
:1025D000596A8A42FAD17047034B596A0A00986ACD
:1025E000596A9142FAD170470040054070B5040025
:1025F0000D00174A536A1900966A536A8B42FAD142
:102600003000190024184D41AB4216D813D0104B9E
:102610002A005B6A9D4203D90D494B6A9342FCD361
:10262000934207D10A4A02E0516A994202D1916A63
:10263000A142F9D370BDA642E9D9054B5B6A1C00E3
:102640005A1CEFD0012201246442E5175242E3E70D
:1026500000400540064A536A9942FCD807D1044B12
:1026600002E05A6A914202D19A6A9042F9D87047C0
:1026700000400540F8B5040006200D0000F08CF97C
:10268000002844D0374B3849E3185A1E9341802222
:10269000120494465B429B0D344A9B0563441360CD
:1026A000334A136018000A689043FBD12D4B314A1E
:1026B000E31859424B4180215B00490006209952A2
:1026C00000F06AF92900C00000F062FB0130C30984
:1026D0001ED1402701226262A362266BF30722D437
:1026E000E36A254B0620E51800232B60266300F0E3
:1026F00053F93900800000F04BFB7023E26A5A4026
:102700000E3313402B601D4B23630323A364F8BDDA
:102710001B4A93421ED900231A4A1B4F6262A362CE
:10272000266BF307DCD5194B144AE3181A60656A67
:10273000A36A0620AD01ED1800F02EF9144900F04F
:1027400027FBAD020100280000F022FB0021FFF76B
:102750004DFFC5E74006800E9F011A003F18030099
:10276000B9E7C0460080FCBF08C0004000E0004060
:1027700000F00040504200202C1000000103000037
:10278000FEFF0000FFFF0000C0FF3F0030300000F0
:102790004E0E0000074A4B42594194464B4260445A
:1027A000F621424250411940034B0A314000C152C8
:1027B0007047C0460080FCBF50420020F8B5DE469E
:1027C0004E4657464546E0B58B4605000A99180027
:1027D000160000F0DDFA0A9B6C001F02324B6419F0
:1027E0009C46A4006444636881469F4200D96760A8
:1027F0002B1FDBB29846012B30D9C02380229B01CE
:10280000E31812011A60294BAD0059599A46002964
:102810001BD17301E026226853401E4080234246AC
:102820005B01E3181E60012A30D9802380229B01BE
:10283000E31812011A6053464A4667605A51F0BCC9
:10284000BB46B246A946A046F8BD586900F0A0FABA
:10285000013043001B18033BFDD2DAE75B46012B36
:10286000CBD1C02303229B01E3181A60023AA3686C
:102870001A42FCD07301E0262268AD0053401E408E
:1028800080230A4A5B019246E3181E605A4621687B
:10289000514003220A401A6001225B469A40A36815
:1028A0001A42FCD0C1E7C04600800040C83E00206C
:1028B000F0B546464F46D646C0B51F00344B4400DF
:1028C0009C462418A4006444636888461600FF2BC5
:1028D00002D880235B006360031FDBB29A46012BA2
:1028E00030D9C02380229B01E31812011A60294BC2
:1028F00085005959994600291BD17301E0262268A9
:1029000053401E40802352465B01E3181E60012A9B
:1029100030D9802380229B01E31812011A608023A2
:102920005B0063604B465F51E0BCBA46B146A846C7
:10293000F0BD586900F02CFA013043001B18033B2E
:10294000FDD2DAE74346012BCBD1C02303229B0102
:10295000E3181A60023AA3681A42FCD07301E02619
:102960002268850053401E4080230A4A5B0191463D
:10297000E3181E6042462168514003220A401A6053
:10298000012342469340A2681342FCD0C1E7C046EF
:1029900000800040C83E0020014B8000C0587047B6
:1029A000C83E0020F8B5040021481E0017000D00A5
:1029B00000F0EEF90100380000F0EAF9069B360459
:1029C0001B031E432368002B20DB1A4B1A49E31814
:1029D0005A1E93418022920194465B421B0B174A78
:1029E0001B0363441360164A13601F000A68974371
:1029F000FBD1144B2560E2182123A06013602368EB
:102A0000002BFCDA0823E6601360F8BD3F23226840
:102A10001340AB42D9D1A3681B051B0D8342D4D10F
:102A2000EE22E368D2021340B342CED1EDE7C046B6
:102A3000001BB7000040FDBF08C0004000E00040A0
:102A400000F000400430000010B580241C4BE40569
:102A50001C6000281AD001231A4C18431A4BDC6161
:102A60001A4C44401C62596298628021144BC9057B
:102A70001960174817490860E021C9041960002A45
:102A800007D18022144B12061A6010BD0E4BD8617C
:102A9000EBE753019B1A9B009A18802312015B04F9
:102AA0009A4209D213000D490B60074B5A608022ED
:102AB000094BD2051A60E8E7094B1A00F3E7C04654
:102AC00000B00540D3C007B0008005402D3FF84F4F
:102AD000FCFF01000820014000A005401441002037
:102AE000FFFFFF008023024A9B000B43D362704725
:102AF00000800540002310B50100988A1B8B984781
:102B000010BDC046162310B50100188802331B887B
:102B1000984710BDF8B54746CE4680B50F1E18D071
:102B200014239946043304000025012698464B4699
:102B30001888434621681B88984701C4431E984162
:102B400001350640AF42F2D13000C0BCB946B046B4
:102B5000F8BD0126F8E7C046AA23064A1B01136008
:102B60002133FF33D3600449044B19605368002BB1
:102B7000FCDA70470040024000B0FA0000600240FA
:102B80007047C04610B50148FEF7E0FD58B100108F
:102B900070B5074D074EB54209D20024013E761BA1
:102BA000B60808CD984723000134B342F9D170BD6F
:102BB00058B0001094B00010054B064A06491A6040
:102BC000064A074B1A6010000B689843FBD1704708
:102BD00000E00040BFCDFBFE08C00040FE7F3C008F
:102BE00000F00040044BDB6C002B03D18022034B30
:102BF000D2021A607047C046000011504C2011509C
:102C0000044A054B1A60054A1368DB018033FBD187
:102C10007047C046FFFFFF0100F0004008C00040C1
:102C20004022034B9A675A671A67DA667047C046B4
:102C300000F0014010B5FEF73BFE10BD70B5044D2D
:102C4000044CA968C022200000F0F0FCAC6070BD0C
:102C500000ED00E000000020002310B5294C82B0F8
:102C6000A367FFF779FF0122274B1A60636C012BE2
:102C7000FCD10322254B1A60224A936B012BFCD115
:102C8000013300930121224A22480433FFF78AFED0
:102C9000052301210093204A2048FFF783FE0022EC
:102CA000022104201E4BFFF703FE00220121052014
:102CB0001C4BFFF7FDFD0022002107201A4BFFF7F8
:102CC000F7FD002200210820174BFFF7F1FD8023BC
:102CD000DB000093002200210920134BFFF76EFD5B
:102CE0000022104B00210620FFF7E2FD0420FFF731
:102CF00053FE0E4900F04CF801000020FFF7F2FEF1
:102D000002B010BD008000403CB0004030B0004038
:102D1000002F685900800240008C864700C00240A6
:102D2000001BB70040597307006CDC0240420F00E3
:102D300001480421014B184740090020152B0010C1
:102D4000124A936F9B0815D29066D166002905D070
:102D5000FFE7FFE7FFE7516F106F704704B5802171
:102D60000906C2175140002800D0C84308F054F9A2
:102D7000002104BDF0B5146E556E576F166FFFF746
:102D8000E3FF1466556657671667F0BD000000D074
:102D9000114A936F9B0813D210665166002905D023
:102DA000FFE7FFE7FFE7516F106F704704B500289A
:102DB00001D00020C04308F02FF9002104BDC04617
:102DC000F0B5146E556E576F166FFFF7E5FF14667A
:102DD000556657671667F0BD000000D094464A4A12
:102DE000926F9208624601D228E0C046F0B5464E86
:102DF000346E756E776F366F00F020F89446424A55
:102E000014665566576716676246F0BD94463E4A9B
:102E1000926F9208624601D254E0C046F0B53A4E35
:102E2000346E756E776F366F00F04CF89446364A04
:102E300014665566576716676246F0BD002B24DBA3
:102E400011D000293EDA00B5C943404200D101311A
:102E500000F038F8C943404200D10131DB4352420F
:102E600000D1013300BD002AEBD1002801D1002997
:102E700005D00020C90FC90701D1C043410800B5E2
:102E800008F0C2F80022002300BD00B500290ADBCB
:102E9000DB43524200D1013300F014F8C9434042F1
:102EA00000D1013100BDC943404200D10131DB43B3
:102EB000524200D1013300F005F8DB43524200D109
:102EC000013300BD002923D1002B18D1002A0CD0DA
:102ED000BC460D4F38667A6600210023FFE7FFE706
:102EE000FFE77A6F386F67467047002801D00748C0
:102EF000010000B508F088F80022002300BD0200A0
:102F00000B00002000217047000000D0FFFFFFFFF2
:102F1000002B00D0BFE0130C28D1002AE7D080B4EA
:102F2000114F39667A66FFE7FFE730B4040C7B6F18
:102F3000396F1B0423433B667A66FFE7FFE7FFE731
:102F4000C04684B27B6F3D6F1B0423433B667A66A9
:102F5000FFE7FFE7C04600232C042D0C7A6F386F83
:102F600000196941B0BC7047000000D0F0B594462C
:102F70000025140E01D112020835140F01D11201DF
:102F80000435940F01D192000235D40F01D15200C3
:102F90000135D40B0134254F7C66254C3C660E0C64
:102FA00093B2FFE7FFE7FFE73C6F6643360C77031A
:102FB000BE467343DF0B5B04C01AB941130C734365
:102FC000DB18C91ACE086643360CB64493B2734375
:102FD0001F0F1B01C01AB941130C73431F0B1B05B4
:102FE000C01AB941860D8F023E436643360C092D47
:102FF00024DB520A7243801A7703460A6643360C72
:1030000016235B1BDE40DF40BF1964466643821B0C
:103010007046043506330100D940A840C01900D3DA
:103020000131A24206D20023F0BD0000000000D012
:10303000FFFFFFFF121B0130F3D3F1E709277F1BCE
:10304000FE406446A2B27243801A00D20139220CBB
:103050007243130C1204821A99410B007046043516
:1030600013370100F940A840801900D30131002B2B
:1030700002D1A2420AD2F0BD013000D30131121BAD
:10308000FAD2013BF8D1A24200D2F0BD013000D308
:103090000131121BF7E7F0B51C0C00D080E00CB436
:1030A00000251C0A04D11B02160E334312020835F8
:1030B0001C0B04D11B01160F3343120104359C0B6A
:1030C00004D19B00960F334392000235DC0B02D1F2
:1030D00092185B4101351C00971864410134464F3A
:1030E0007C66464C3C660E0CFFE7FFE7FFE7C046F8
:1030F0003C6F6643360C7703BE4697B27743C01BDE
:1031000000D20139C01B00D201399FB27743C91BDD
:10311000C91B170C77437E04FF0B801BB941CE08F7
:103120006643360C0C2D33DBB644120B1F053A43B5
:103130001B0B97B27743C01B00D201399FB2774374
:10314000C91B170C77433E043F0C801BB941860D09
:103150008F023E43664329277F1BFE400C3D774686
:10316000AF40BF1930BCA2B2ABB272437343801AF6
:103170009941220C7243130C1204801A99410200E7
:103180000B000137001BA941F9D2781E0021F0BDC8
:103190000C277F1BFE4077467F0BAF40FF19E0E70F
:1031A00000245D1C07D0144F7D663966FFE7FFE7FA
:1031B000FFE7FFE73C6F95B29EB265436643401B55
:1031C000B141150C1E0C6543664336042F0C3E437B
:1031D0002D04401BB141994204D202000B00200093
:1031E0000021F0BD01D19042F7D3801A99410134FA
:1031F0009942F2D3F6E70000000000D0FFFFFFFF86
:1032000048404140484018B4134B5B68019308BDE7
:1032100018B4114B1B68019308BD94460F4A926F76
:10322000920805D2624618B40B4BDB68019308BDC7
:103230000A4AF0B5146E556E576F166F6246FFF767
:10324000F2FF064A1466556657671667F0BD18B454
:10325000014B9B68019308BD101C0020000000D0AA
:10326000FFB550404240504059404B40594000E06B
:10327000FFB5154F4C00640D03D0BC4204D10C03C4
:1032800014D80020090D09055C00640D03D0BC4270
:1032900004D11C030AD800221B0D1B0501264B403C
:1032A00009D44B4003D58B4200D18242FFBD9942E5
:1032B000FCD19042FFBD0B43DB1803431343F5D011
:1032C000C9434918FFBD0000FF07000000B5FFF724
:1032D000CFFF804100BDC04600B5FFF7C9FF01D94F
:1032E000002000BD012000BD00B5FFF7B9FF01D9E6
:1032F000002000BD012000BD00B5FFF7B1FF8041F7
:1033000000BD012040054A00121804D85A001218C6
:1033100001D80020704701207047000000210028DC
:1033200005D17047C1174840401AFAD0C90713B5F4
:10333000064B1B6898470CBC441CA2401005120B9E
:103340000349091B09051943114310BD48410020D9
:103350001F04000010B54C00620D8023D218DB0062
:10336000D21A5B057E2A10DD9E3A13DACC170903C8
:10337000490819435242D140640001341532202AD1
:1033800005DAD0400843604310BD002010BD084658
:10339000604310BDC80FC018013810BD18B4024BEF
:1033A0005B6A019308BD0000101C002010B50148A5
:1033B000FEF7CCF964B10010132370B51D78012D10
:1033C00019D014DD1D48FFF79DFB06001C48FFF7D0
:1033D00099FB1C4C80223100200000F027F9022DBF
:1033E00006D01948FFF786FB184B186070BD154CC6
:1033F000174BA364F5E7174B124C23606360A3607F
:10340000E36023616361A361E36123626362A3629A
:10341000E36223636363A363E36323646364A3647A
:10342000E36423656365A365E36523666366A3665A
:10343000E36623676367A367E367D9E75344000044
:1034400053460000101C00204C330000484100206F
:1034500059340010AD33001007B5604601880A0AE0
:103460000230DF2AFAD1C9B2820804D30288408828
:103470000004104300E00068014A5050039007BD6B
:10348000101C002051434343C9188C46110C83B2D1
:103490004B4310B4040C614392B280B25043624378
:1034A0001C041B0C001910BC59411304120CC01849
:1034B00051416144704700004840414048400E4B34
:1034C0005B6818470C4B1B6818470C4A936F9B08A6
:1034D00002D2094BDB681847F0B5146E556E576F72
:1034E000166FFFF7F6FF054A1466556657671667AD
:1034F000F0BD014B9B6818474C410020000000D0F4
:10350000491A002808D1084670470000C10FC907B2
:1035100000D54042002817D0F44603B40B4B1B687B
:10352000984706BC81409E384042803107D20B0646
:1035300007D04900490AC0051043084360470130DD
:10354000F8E7490A8902F5E7704700004841002082
:10355000014B5B6A184700004C41002010B5014840
:10356000FEF7F4F870B20010132310B510481C7861
:10357000FFF7C8FA0100012C0AD003DD80220D48B4
:1035800000F054F80C48FFF7B5FA0C4B186010BD6A
:10359000084C5422200000F049F8220008498032EB
:1035A0002368002B00D1216004349442F8D1E9E76C
:1035B000534600004C4100204C330000484100209D
:1035C0005D35001010B5040007F062F8002804D043
:1035D000034B04199C4200D810BD0248FEF7B6F810
:1035E000000004207CB1001070B505000C0006F04E
:1035F000EFFF6C43002804D0034B04199C4200D811
:1036000070BD0248FEF7A2F8000004207CB1001053
:1036100001480421014B184750090020152B0010C8
:10362000014B1B681847000050090020014B5B68E4
:1036300018470000500900207047C046F8B55746AB
:10364000DE464E464546E0B599460A9B07009A4637
:103650000D9B884693460B9C9B073BD10C9B9C4241
:103660003DD21E1B0B9415000C005E442A004B46F5
:10367000013521002020B847B542F7D1A0460B9C68
:10368000002C20D0454636195346321B013C185DAC
:1036900029004B46B847002CF6D12B003500984640
:1036A0000D9B9B070FD55B46EC1A0C9BA3420AD9D6
:1036B000464698462A004B46310020200134B84740
:1036C00001354445F6D32800F0BCBB46B246A946B6
:1036D000A046F8BD16001500002CD3D1E0E7160077
:1036E0001500002CCED1EEE7F0B54546DE46574634
:1036F0004E46E0B585B09C4610AB1B78149F9346B0
:1037000098460F9C129E139DBB074CD4002D42D1AE
:10371000B44248D201233B4099460E9B013B9A4656
:10372000302304E0524601341355A64201D9202C1F
:10373000F8D14B46002B00D183E00E9B013B99460C
:103740003023A54205D82EE04A4601341355AC4239
:1037500029D0202CF8D1FB060CD57B0554D4A642E9
:1037600063D0A54261D0119B102B50D0022B57D0B3
:10377000202C32D1202301930E9B5A4600930397AD
:1037800063460295FFF75AFF05B0F0BCBB46B24650
:10379000A946A046F0BD01233B40994601233B4288
:1037A0002AD1B442B9D3FB061CD57B05DBD4002C4F
:1037B000D5D1119B102B5BD0119B022B6BD03023EA
:1037C00001240E9A13704346002B10D17B073ED57F
:1037D0002B260E9A631C1655CDE7230001343026A4
:1037E0000E9AD654202CC5D04346002BEED02D2661
:1037F0000E9A631C1655BEE74346002B2FD0013DA1
:10380000B44200D289E798E7119B102BB2D1BB06D6
:1038100037D5202CAED058230E9A13550134A7E784
:10382000202CA7D02300013407E0631E012CC0D058
:10383000119A102A31D0022AD1D162260E9AD6547A
:1038400096E7FB06CED57B0500D488E78BE72300FF
:103850003E0790D520260E9A013316558BE70C2390
:103860003B405A1E9341ED1AB44200D255E764E73B
:10387000BB060ED478230E9A0224137030235370A3
:10388000A1E7202C00D175E778230E9A1355013457
:103890006EE75823EFE76033EDE70E9AA61E9146D8
:1038A0004E44BA0602D55822327098E77822327018
:1038B00095E7C04610B5002800D110BD01F09AFC74
:1038C000FBE7C0460B0010B5002802D049681B6812
:1038D000984710BDF0B55746DE464E464546E0B522
:1038E00095B083460F00924698461E9A1F9B100083
:1038F0001900209EFFF705FD002800D0EAE11E9880
:103900001F990122C54B5242FFF7E0FC002800D06E
:1039100014E11E981F990122C14B5242FFF7ECFCA3
:10392000002800D0E9E01E981F990022BD4BFFF748
:10393000E3FC002800D0C8E01E981F990022BA4B73
:10394000FFF7C4FC002800D0BFE01E981F9900229A
:103950000023FFF7BBFC002800D0E4E000230B931A
:10396000229B5B0500D406260024302307E01721A4
:1039700006AA013452181355013E202C01D0092EFD
:10398000F5D81E981F99FFF7E5FCA84BF2009B188D
:103990001A685B68050008920993FFF7C3FC0200F0
:1039A0000B001E981F99FFF72EFC089A099BFFF742
:1039B0004EFC06900791FFF7F1FC8146FFF7AEFC45
:1039C00002000B0006980799FFF71DFC0022984B98
:1039D00006900791FFF790FC002800D10DE101232C
:1039E0009C46E1444846FFF799FC02000B0008980A
:1039F0000999FFF771FC002802D000239946013590
:103A0000002E00D1D9E006954D46B94614E006AA2D
:103A1000944617230A216344280001341F19FFF735
:103A2000B7F93031397028000A21013EFFF7B0F9AB
:103A3000092D00D817E10500202CE8D14F46069D3E
:103A400020240CAE06AA17239446634499465B468D
:103A5000B34606930FE04B4628000A210134E618CE
:103A6000FFF76EF93031280031700A21FFF768F94D
:103A7000051E00D1E4E0202CEDD1069B5E469B465E
:103A80000323229A1340012B18D1219B002B15D020
:103A90000B9B002B00D1FDE0219B013B2193202BB0
:103AA0000CD93023219A07E0172006A90134091800
:103AB0000B55944200D3CCE0202CF5D1229B0194ED
:103AC0000393219B0096029322E0229B524604938B
:103AD000219B3900039358461E9B1F9C029600931E
:103AE0000194434600F04AF90400200015B0F0BCF0
:103AF000BB46B246A946A046F0BD229B5B070FD449
:103B000003224C4B22990192039121990093029137
:103B10004346524639005846FFF790FD0400E4E75B
:103B20000422454BEEE71E9A1F9B00200021FFF761
:103B30006AFB01231E901F910B9311E7229B5446B1
:103B40009B0711D1219B042B0ED9219B55469C46E6
:103B50005E46043C64442A00434601353900202077
:103B6000B047A542F7D1B346344D26002B1F9946E6
:103B70005B46A3461C003200E87843463900013D0D
:103B8000A04701364D45F6D123005C469B46229B5B
:103B900004349B07A9D55346219AE31A9A42A4D923
:103BA0005E4615002200434639002020B0475346A8
:103BB0000134E31A9D42F5D897E72800FFF7B2FBDE
:103BC00002000B001E981F99FFF71DFB0022184BE7
:103BD00006900791FFF77AFB0CAE002800D031E782
:103BE000069807990022124BFFF786FB002800D0A9
:103BF00028E7012301359D4324E700220698079911
:103C00000B4BFFF763FB002800D0F9E64B46002B77
:103C10005CD101239C46E144F2E6C046FFFFEFFF82
:103C2000FFFFEF7F65CDCD4165CDCDC1F0B5001073
:103C30000000E03FE8B10010E0B10010F0B100106A
:103C4000069B5E469B460323229A1340012B00D11C
:103C500081E0202C00D131E70B9B002B27D02D23B6
:103C6000335501342AE74F46069D202C00D1E7E664
:103C70003022331907E0172006A9013409180A5524
:103C8000202C00D1DCE6A342F5D12E220CAE01346B
:103C9000F254D7E60C23229A134257D0219B013BC2
:103CA0002193A34200D9FCE6202C00D106E7229BF9
:103CB0005B0703D52B2333550134FFE6229B1B07FB
:103CC00000D4FBE6202333550134F7E6DB0700D4AC
:103CD00096E69EE7229B55469B0711D1219B032B1D
:103CE0000ED9219B54469C465E46033D6544220006
:103CF0004346013439002020B047AC42F7D1B346E7
:103D0000B9465F461C4EEC1C2A00B0784346494633
:103D10000135B847013EAC42F6D1229BBB464F4627
:103D20009B0700D4E1E65346219AE31A9A4200D851
:103D3000DBE65E4615002200434639002020B047EE
:103D400053460134E31AAB42F5D3CEE6219BA3429E
:103D500000D9A6E6B2E6219B002B00D179E70B9BA8
:103D6000002B97D0219B013B21939C4200D298E6E7
:103D7000202C00D073E7A1E6ECB10010F0B5DE46D0
:103D800057464E464546E0B599B081468B46924629
:103D90009846229A239B10001900FFF7B2FA0028D8
:103DA00000D0CAE0229823990122824B5242FFF7A9
:103DB000A3FA002800D0C0E02298239901227E4B6C
:103DC0005242FFF783FA002800D0B6E022982399E8
:103DD00000220023FFF77AFA002800D0C9E1229BD5
:103DE000239C08930994089809998023269ADB005C
:103DF0001A400D928022269C1201144022000B943E
:103E0000269C07000E001C4200D0ADE00B000343CF
:103E100000D0D5E0002A00D00AE222000633249325
:103E2000022313400C930223134200D002E2259B8D
:103E3000042B00D20FE2043B0B93002304250A93CA
:103E40000022229823990023FFF740FA002800D08F
:103E500003E25A4B269A134004930B9B0393249B33
:103E60000293089B099C009301945946434652468D
:103E70004846FFF72FFD02002020269B1F27034006
:103E800059424B415B421840531C089359464346E4
:103E90004530C8470A9AD317D4185C40D30F0A9309
:103EA0006B1E0B9308AB9C460025674401E0202D58
:103EB0000FD020000A21FEF76BFF01357E1930314B
:103EC000317020000A21FEF763FF26000400092E4E
:103ED000EDD8052306930B9B5946059300230493C5
:103EE0000A3303930A9B4846029310AB0093089A47
:103EF00043460195FFF7F8FB0C9B002B2DD0534652
:103F0000C41A259BA34228D94D465F4681461E0010
:103F1000534639001A19202043460134A847A642C7
:103F2000F6D8534648462599C21A013200239142D9
:103F300000D386E1013018180FE0269B0493259BDF
:103F40000393249B0293229B239C0093019443465A
:103F5000524659464846FFF7BDFC19B0F0BCBB4677
:103F6000B246A946A046F0BD01432BD10B9B2200CF
:103F7000002B00D154E700230A93249B0A9A0024C3
:103F8000934200DD85E12298239900220023FFF768
:103F90009DF9002800D035E1269B084A02941A407A
:103FA0008023DB0013430493259B0393089B099C08
:103FB000CBE7C046FFFFEF7FFFFFEFFFFFF7FFFFFD
:103FC00006232493B44B70009C46400D6044FFF7D9
:103FD000A9F9B24AB24BFFF73AF9B24AB24BFFF72E
:103FE00017F93603B14B360B334304000D0038008C
:103FF00019000022AE4BFFF706F9AE4AAE4BFFF7B1
:1040000026F902000B0020002900FFF701F9FFF755
:10401000A1F90A90FFF786F9A84AA94B04000D0000
:10402000FFF715F90022A74BFFF7F2F8FFF792F917
:10403000A54A0600A54B20002900FFF708F9040057
:1040400030000D000C96FFF76DF9A14AA14BFFF768
:10405000FEF802000B0020002900FFF7D4F8020050
:104060000B0006000F00FFF7F2F8320004000D000D
:104070003B0030003900FFF7CBF800220E900F9183
:10408000954B20002900FFF7C8F80022934BFFF75B
:10409000BFF802000B0020002900FFF7BEF8002245
:1040A0008F4BFFF7B5F802000B0020002900FFF747
:1040B000B4F80D008021040032003B000020C90547
:1040C000FFF7A1F802000B0020002900FFF7A0F87D
:1040D00002000B000E980F99FFF79FF80022734B18
:1040E000FFF796F87F4B0C9C9C4664440022230506
:1040F000FFF7ADF806000F0002000B0008980999C1
:10410000FFF7E4F800280AD00A9B3000013B390091
:104110000A930022714BFFF780F806000F000A9AFD
:10412000330063323900C62A12D8022226980425A9
:1041300010400B9A0C90002A25D1259B042B05D901
:10414000002800D0A1E0259B043B0B93042541E00F
:104150000222269810400B9A0C90002A12D1259B1F
:10416000052B76D9002872D1259B0525053B0B939D
:1041700034E0802212069446229B0893239B6344DA
:10418000099330E605250B4300D1F6E60898099916
:10419000554A564BFFF7A8F8002808D00898099907
:1041A0000022534BFFF792F8002800D0E5E6249B4D
:1041B000002B1CD00D9B002B19D0249B013B24937A
:1041C000259BAB4204D90C9B002B5AD002230C93A5
:1041D00000230B930A9B002B00D131E60898099924
:1041E00032003B00FFF719F80890099128E6259B5B
:1041F000AB42EDD90C9B002B43D000230B93023331
:104200000C93E7E78020269B3A4A00061A40802359
:1042100084460294089C099D2900DB001343049303
:10422000259B6144220003930B00009201938EE6CC
:104230000524A8E600230B930A93023304250C936C
:10424000FEE553468C46013B63441B1A72E602238B
:104250000C930525C2E70423EDE58020089E099F05
:10426000000639008446269A224B61441340049389
:104270000B9B32000393249B02930B00009201934B
:10428000F3E5259B5B1B0B93A4E7022304250C930A
:10429000A0E79C1A013C76E601FCFFFFFB799F50EA
:1042A0001344D33FB3C8608B288AC63F0000F03F59
:1042B0000000F83F61436F63A787D23F71A379097C
:1042C0004F930A400000E03F1655B5BBB16B02406A
:1042D000EF39FAFE422EE63F00002C400000244059
:1042E00000001840FF0300002D431CEBE2361A3F8C
:1042F00080842E41FFF7FFFFF0B5DE4657464E465D
:104300004546E0B5A5B01E002E9B92460C93CD4AC3
:10431000CD4B80468B461A60002900D1EAE100238C
:1043200030789946002800D1ECE1C84B4C460B93FD
:10433000C74B454657460E930AE0631C9846220039
:104340003B005946A84744463078002800D187E012
:1043500001362528F1D108239A46043B9946023BB1
:104360009846013B00229C460D943078711C030056
:10437000203BDBB2102B03D80B9C9B00E3589F46DD
:104380000300303B89460D9C092B3AD900239846FF
:104390002A2800D1C1E000239A462E284BD00300E2
:1043A000683BDBB2122B1ED80E999B00CB589F4660
:1043B00063460E001A43D8E743460E001A43D4E77B
:1043C0004B460E001A43D0E710230E001A43CCE7E9
:1043D00053460E001A43C8E780235B001A43FF3B95
:1043E0009C467078E1444E4667284FD82428A4D9CB
:1043F0000300253BDBB2422B9FD896499B00CB584C
:104400009F46002394461E0000E00131B3009B1933
:104410005B001E180878303E0300303B092BF4D9AE
:104420000123624689469C460023B0469A460E0008
:10443000E1442E28B3D13021802049428C46C0006F
:10444000024370784B4684446146092900D86CE1E8
:104450002A2800D17AE101239C464E46E1449EE79A
:10446000A146A846BA46CA4503D801235B42534435
:10447000994653464A4659460020C047200025B079
:10448000F0BCBB46B246A946A046F0BD0300693B5E
:10449000DBB20D930F2B00D94FE7012199408C46D9
:1044A0006D49894661464B4619400F91634649461E
:1044B0000B4200D028E10D9B0A2B3AD0072B00D0ED
:1044C0003BE70C9B190008C98846002B00D14BE143
:1044D00021200243914614A98C461F220F216244D9
:1044E0008C4651460D950C91A24615000F9902E09D
:1044F00020290CD0130064461C4020003730092CC2
:1045000000D80738013168541A090F2BF0D80C9BDA
:1045100054460D9D9A460F9133E10C9B02CB884681
:10452000002947DB0C9301239C4670784E46E144FA
:1045300031E70C9B02CB14935346002B00D138E19A
:104540009C4608780B000C908C44002801D100F0A8
:1045500098FC89466146944603E05A780133002A64
:1045600001D08B42F9D1494662465B1A0C900F93F9
:10457000530500D520E10223180010400D9013428E
:1045800000D1CBE30D930B1BB1469A465E460C98C7
:1045900022003B003100A84753460134185D002833
:1045A000F6D1B3464E460D9B002B00D0C7E1149BBD
:1045B0000C93C9E60C9301239C46283849420243D8
:1045C000884670784E46E144E5E670786C2800D164
:1045D0007FE180235B001A43FF3B9C46E14402E7F6
:1045E00080239B001A4301239C467078E144FAE63D
:1045F0007078682800D173E180231A437F3B9C4682
:10460000E144F0E6672800D103E1472800D15AE1F0
:10461000452800D15AE10492072142460C9B03929F
:10462000073352468B43190002920CC928000092AE
:1046300001930C9122003B005946FFF79FFB0400B9
:1046400082E6C046F94200101041002050B400102C
:1046500094B40010E0B4001041900000462800D14E
:10466000DBE00492072142460C9B0392073352463B
:104670008B43190002920CC92800009201930C91FF
:1046800022003B005946FFF725F904005CE6631C55
:10469000984622003B0059462520A847444653E649
:1046A0000C9B04330D93631C9946920700D422E1BE
:1046B0000C9B2200187859463B00A84743464444C7
:1046C000012B00D885E23300B8462E005F46250056
:1046D0004C46994622004346013439002020B04719
:1046E000AC42F7D12C00BB46350047464E460D9BE9
:1046F0000C9329E6DB4B3078984600239946002836
:1047000000D012E60024AEE66F2800D188E000D881
:104710000BE31023782800D1CFE09A430A239C466C
:1047200000230F930A330D9380E05646B100891998
:10473000490001330E181878303E0100303909293C
:10474000F4D9B2461E000133994628E60C9B023686
:1047500002CB8A46C9435046C917084082460C938B
:104760003078731C99461AE61023100098431133D1
:104770001843814680201300C0000340024200D14C
:10478000A9E64B460693082305935346049310234A
:104790000393002302930F9B220001931CAB009311
:1047A00059463B002800FEF79FFF434604000C9348
:1047B000CAE501235B42C3E60F9B534501D953462B
:1047C0000F930223180010400D90134200D1B7E15F
:1047D0000D93D1460B1B9A463300A1442E002200B4
:1047E0004D460C98B9465F469B4608E04B4639005B
:1047F000541CB0475346185D002877D022009542DC
:10480000F4D15B46BB464F46A94635004C461E00D8
:10481000C9E680231B011A43FDE620231A4320E743
:1048200008239C4600230F9308330D938023110027
:10483000DB0019401A4200D116E10D239A43100003
:10484000802302009B001A401492184200D0C2E15B
:10485000802302005B001A4091460C9A04320F92AA
:10486000184200D0B7E2430600D59FE1030600D40A
:1048700019E30C9B1B880993002B00D0FCE110333B
:104880009843002900D1F7E1002399464346059358
:10489000534604930D9B069003930023D2E05828BF
:1048A00008D0622867D102239C4600230F9302336D
:1048B0000D93BBE720231A43103B9C4600230F9324
:1048C00010330D93B2E780231B011A4320231A43B0
:1048D000A1E6C0239B001A43F31C9946B07882E5F9
:1048E000C0231A43F31C9946B0787CE535005E4638
:1048F000BB464F4657E64346012B00D863E1631E93
:1049000043449A463300B9462E005F4655469B46BF
:10491000A24622004B46013439002020B047AC4269
:10492000F7D135005E46BB464F46A14654460C9B28
:104930004A46187859463B004444A847D7E6A14662
:104940000F9B984500D832E64444E41A3300B84639
:104950002E005F4625004C4699462200434601340E
:1049600039002020B047AC42F7D12C00BB463500BF
:1049700047464E461BE680231000DB0018401A42D3
:1049800000D10FE1112118008A430D920D9A802366
:1049900011009B0019408C461A4269D180231100F6
:1049A0005B00194089460C9904310F911A4200D0DE
:1049B000CAE113005B0600D5F0E013001B0600D42B
:1049C00059E20C9B00229B5ED9175A184A4092B2BA
:1049D000D90F0C91002B00D1F9E1100014AA9446D4
:1049E00042461F23149252466344A84616944D46ED
:1049F0000400B946B2461F00159201E0202D0FD0E9
:104A000020000A21FEF7C4F901357E1930313170DA
:104A100020000A21FEF7BCF926000400092EEDD87B
:104A2000149B4F46A94645469846159B56469A46BE
:104A3000169C0D9B069343460593534604930A2305
:104A400003930C9B02934B4601931CAB22000093F3
:104A500059463B002800FEF747FE0F9B04000C93CD
:104A600072E4C046393600100C239A431000E7E682
:104A700007220C9B07339343013294469C446246C1
:104A80000C920CCBD90F0F911100194300D191E07A
:104A9000D9171391129151401091139959401191C6
:104AA00010981199129A139B801A994110901191A4
:104AB00014AA0023944642469946149252461F3344
:104AC0006344A846B24616944E46109C119DB946C2
:104AD00015921F0001E0202E10D0200029000A228C
:104AE0000023FEF793F9013630322B00BA550D0042
:104AF00022000400002BEED1092AECD8149B10945C
:104B0000119545469846159B4F46B14656469A46DE
:104B1000169C0D9B069343460593534604930A2324
:104B200003930F9B02934B4601931CAB220000930F
:104B300059463B002800FEF7D7FD0400FFF704FCB0
:104B40000F9B984500D8C1E18023DB000D934346BD
:104B50000F9A1B199B1A994633002E004D46B946F1
:104B60005F469B460C9122004B46013439002020C1
:104B7000B047AC42F7D143460C9901330F930B7801
:104B800035000C935E46BB464F46002B00D10EE528
:104B90000D9B002B00D1F6E4002319E60C9B1B783B
:104BA0001A0015E710239A430D92EFE60C9B1B7831
:104BB000099361E6002399460028AAD10022002328
:104BC0001092119374E70C9B2200187859463B0011
:104BD000A8474C468BE50C9AFA3BFF3B07329A43B9
:104BE0000133994691444B460C93136852681592D1
:104BF0001A4306D11032904300220992002900D0B6
:104C000081E06122810600D54122D2B20A9214AA23
:104C100091460A9A00210A3A149242461792524645
:104C200018925A460991B3461F311E000F9B494402
:104C3000BA4619941A950024674698468946159DE8
:104C400016901B920AE03032D2B24B4601341A550C
:104C5000A8454AD0202C4AD006000D003A00002377
:104C600030002900FEF7D2F8D2B2092AEBD9149B02
:104C70009C466244D2B2E8E76123820600D5412314
:104C8000DBB20A3B0C93434614A91F228C461593B2
:104C900053466244A046B2464C461797A9461700B1
:104CA000099D0D9E1490169308E03033DBB2013459
:104CB0003B55B5420ED3202C0CD005003100280006
:104CC000FEF766F8CBB20929EFD90C9A94466344F3
:104CD000DBB2ECE7159B4D46A14644469846169B31
:104CE000564614989A46179FD0E5B742B2D9179BFB
:104CF00057469846189B5E469A461B9B09949B46CE
:104D00001698199C1A9D43460593534604930D9B90
:104D10000690039300230293099B05E70F9B984598
:104D200000D914E701330F932DE4102311009943A8
:104D30000D91692800D0BAE080231000DB001840F4
:104D40001A4200D122E61DE60C9B1B68DA0F110007
:104D5000002B00D18CE0DA179818504014AA914625
:104D600042461F23149252464B44A046A94616972A
:104D700004006546B2461F000C91159201E0202DFB
:104D80000FD020000A21FEF703F801357E193031DB
:104D9000317020000A21FDF7FBFF26000400092ED8
:104DA000EDD8149B444698460C9BAC461900159BC5
:104DB00056464D469A46169F0D9B029106934346D2
:104DC0000593534604930A23039363463CE6002865
:104DD00000D02EE602E60C9B1B689946002B03D1FF
:104DE00010339843002938D16123820600D541232E
:104DF000DBB20A3B0C9343461693534614A91F2279
:104E00008C4617932B006244A0464D46B246189735
:104E100099461700149C0D9E159008E03033DBB2C4
:104E200001343B55B5420ED3202C0CD00500310087
:104E30002800FDF7ADFFCBB20929EFD90C9A9446B3
:104E40006344DBB2ECE7169B149444469846179BE8
:104E500056464D469A461598189F43460593534625
:104E600004930D9B0690039300230293149BEBE5A0
:104E70000028A1D172E70C9B1B68D9175A184A4029
:104E8000A6E580231000DB0018409C460F901A42D4
:104E90000FD00220030013400F93104219D00023BB
:104EA000A1460F934CE50C9B1B680993E4E40A00B0
:104EB00034E40223180010400D90134200D03EE568
:104EC0004346002B00D042E6FFF771FB01330F93FE
:104ED0007FE463460D93F3E710B50C0084B00394B0
:104EE000012402A902900093034813006242FFF7D5
:104EF00003FA04B010BDC046C538001010B5094A09
:104F00000300146884B0002C08D0012200910648E8
:104F1000524203A9A047012004B010BD00F0B4F92B
:104F20000020F9E710410020B538001000BEFDE771
:104F3000094A03001068002805D00849C3188B42AD
:104F400007D81360704706480449C31810608B42A5
:104F5000F7D901204042F5E7FC4000200000042082
:104F60007442002010B5FFF7E1FFC04670B5FDF7B1
:104F70000FFE074D074EB54209D20024013E761BB5
:104F8000B60808CD984723000134B342F9D170BD6B
:104F900094B000109CB00010030010B50800110080
:104FA0001B68984710BDC046F0B5C64600B5437DA6
:104FB00007000C001600002B46D0002A17DD0B78E6
:104FC0000A2B24D000239846012E13D00125290056
:104FD000635C01350A2B26D0B542F8D1464509DC81
:104FE000A419013C23780D3B5A4253413B7580BCC8
:104FF000B846F0BD4346E018A419F11A013C3B68DD
:10500000984723780D3B5A4253413B75EFE7037DA8
:10501000002BD7D102210F483B689847012EDFD0E3
:1050200001239846D2E7631E5B5C0D2BD4D08845E4
:1050300004DA4346C91AE0183B689847022105483C
:105040003B68A8469847C7E70368110020009847C7
:10505000CDE7C04640B60010F0B5C6460B68060066
:105060000C0000B5802B06D05A1C2260E418267173
:1050700080BCB846F0BD0F4B1D68002D16D00B1D2F
:1050800098460D4F02E02D69002D0FD02B68002BA4
:10509000F9D03B68002B01D0AB42F4D12800414647
:1050A0002268FFF781FF2D69002DEFD10122002337
:1050B000DBE7C046F03E0020F8400020F0B5454652
:1050C000DE464E465746E0B583B091461C0080460A
:1050D0000D00FDF781FA0023304A12184B41002BD6
:1050E00002DA01222E4B52422E4908008A4605F070
:1050F000A3FF07006B1C03D1404605F0F3FD05003C
:10510000002C27D0284E294B1C68002C18D04B4669
:10511000002B21D1264B994602E02469002C0FD0A8
:105120002368002BF9D04B461B68002B01D09C4212
:10513000F3D120002A004146B0472469002CEFD16A
:10514000002F26D1280003B0F0BCBB46B246A946CA
:10515000A046F0BD174ED6E7154B99460A239B464D
:1051600002E02469002CEBD02368002BF9D04B46D9
:105170001B68002B01D0A342F3D12A004146200036
:10518000B0476B465A462000DA71D91D0122B0475C
:10519000E7E7504605F030FFD4E7C04640420F0035
:1051A000FFFFFF7F000F0020A94F0010F03E0020FE
:1051B000F8400020994F00100A4A1368002B05D1CF
:1051C0000CE01A001B691032002B07D08342F8D183
:1051D000002902D118691060196170470029FCD0BC
:1051E0001060FAE7F03E002010B500F0ABF90120A6
:1051F00010BDC046F0B5CE46474680B583B06B467D
:105200000600DD1D2870FDF7E7F90023194A121882
:105210004B41002B02DA0122174B5242174908007A
:10522000884605F009FF164B81461C68002C14D0F7
:10523000144F02E02469002C0FD02368002BF9D012
:105240003B68002B01D09C42F4D1200001222900B0
:10525000FFF7AAFE2469002CEFD14B46002B05D1A5
:10526000300003B0C0BCB946B046F0BD404605F0C2
:10527000C3FEF5E740420F00FFFFFF7F000F002055
:10528000F03E0020F840002070B5040005F02AFD33
:1052900001230100050001222000FFF70FFF084B4A
:1052A0001C68002C06D06368002B05D09847246941
:1052B000002CF8D1280070BD2469002CF3D1F9E747
:1052C000F03E0020F0B5CE46474680B5A3B00400BE
:1052D0000D00FDF781F90023274A12184B41002BDE
:1052E00002DA0122254B5242254E300005F0A4FE81
:1052F00000232200019307002B00224801A9FFF799
:10530000EBFD214B804699461C68019B002B1AD06F
:10531000002C2FD01D4D02E02469002C0FD02368F3
:10532000002BF9D02B68002B01D0A342F4D1200030
:10533000019A02A9FFF738FE2469002CEFD14B46F1
:105340001C6800230193002C06D06368002B0BD04F
:1053500098472469002CF8D1002F07D1404623B08C
:10536000C0BCB946B046F0BD2469ECE7300005F09A
:1053700043FEF3E70194EFE740420F00FFFFFF7F9A
:10538000000F002059500010F03E0020F84000208F
:105390000FB400B583B004A901C90191FFF792FFD2
:1053A00003B008BC04B01847F0B5002915DD0E4B5A
:1053B0000D271A680D4B0E4CD3185D426B414518F2
:1053C00020215B001E5F0478A64207D09369194232
:1053D000FCD101301460A842F5D1F0BD93691942A7
:1053E000FCD11760F2E7C046584200200080FCBFA5
:1053F00050420020204B70B504000D1E1E682ADDAF
:10540000002010211D4B013C1A689369194214D1E8
:10541000013093691942FCD1136823548542F4D1B9
:10542000002E08D050239363516B183B0B40144956
:105430008C4662441360280070BD002E08D05023B3
:105440009363516B183B0B400D498C4662441360CB
:105450000028F1D10CE0002E0AD05022074B1B6827
:105460009A63596B183A0A4005498C4663441A609E
:1054700003204042E0E7C046B43E002058420020EE
:1054800034100000064B10B51B68002B06D000211D
:10549000044A12689163044A1068984710BDC046D8
:1054A000B43E002058420020B83E00200822034BA2
:1054B00019688B691A42FCD17047C04658420020D7
:1054C000F8B51A4F1A4B3A680500D31858424341B1
:1054D000184E14331C003368002D02D0002B0FD05F
:1054E000F8BD002BFCD0002120009563FCF700FAEA
:1054F00020001149FCF732FB104B35601D60EFE7CF
:105500000E4B200019600C493560FCF703FA0121AD
:105510002000FCF7EDF950223B689A63596B183A6A
:105520000A4007498C4663441A60D9E75842002074
:105530000080FCBFB43E002085540010B83E00201F
:10554000341000000D4B10B51B780D4B0D4C1B7823
:105550000D4B02211B780D4B00202360FCF7DCF87B
:1055600002210120FCF7D8F8E12120680903FDF7AA
:1055700081F801210648FFF71FFE10BD04B7001097
:1055800000B7001058420020FCB600100040034055
:105590006009002070B50C4E0D001C003060002A20
:1055A00003DB02211000FCF7B7F8002C03DB02211B
:1055B0002000FCF7B1F829003068FDF75BF8012105
:1055C0000248FFF7F9FD70BD584200206009002035
:1055D00010B50A4B0A4AC418240DA40082B00092E8
:1055E00008482200E31CFCF701F9844202DC001B9E
:1055F00002B010BD01204042FAE7C0460000E0AF13
:1056000024B20010C43E0020F0B557464546DE46A1
:105610004E468846E0B583B006000525FCF7AEF897
:10562000434684465D571879334B344AF3181B0DB3
:105630009B009246D758012220248240241A013A26
:10564000002D41DBA54232DC1100A9400F422ED1D2
:1056500041460968894641468979002945D12C008F
:10566000AA40934659463A40394241D180218901A6
:105670008846002816D06146A44634004E46994616
:10568000030001915100705A404500D24019A918F9
:1056900012318900013208519A42F3D3019B6446CA
:1056A0009C464B465A4617435246D75001E00124C8
:1056B00064426046FCF76EF8200003B0F0BCBB46C5
:1056C000B246A946A046F0BD002C02DA10E0013C2B
:1056D0000ED31100A14025000F42F8D141460968C0
:1056E0008946414689790029BAD014246442E0E70A
:1056F00009246442DDE7C0460000E0AFA03B002083
:10570000F0B54E464546DE465746E0B583B089467D
:105710000CA984460D781F2A45D849464900884679
:105720004944C900461837003400DC373868CC34A7
:1057300083462068310001901C4880248246A402E0
:1057400051440C6069424D411E216D428D43184900
:105750008A465544052B0CD9A0201F214005D83678
:10576000540104430532053B3C600A403560052B7B
:10577000F6D852019B06134342464A44D200624483
:105780001000DC3213600300D8331D605B461360E9
:10579000019BCC300360002003B0F0BCBB46B24696
:1057A000A946A046F0BD05204042F5E7CC300000F8
:1057B0009FE00000F0B501258D400468AC43046013
:1057C000002B2ED04D006C18E400041926001F6831
:1057D000C83637609F68043677605F68DB68DC3402
:1057E000376023606B18184DDB00AC468025C41869
:1057F00064442D0625602560144C0D1D8C4084608A
:1058000001242600AE40802508318C401F21AD01C7
:105810004519C0180A40D8302E602C600260002064
:10582000F0BD4D006C18E400041926008027C8362E
:105830007F023760C0273F03B760F82704367F0236
:10584000DC3437602360CDE7D01000000101010196
:1058500010B5FAF795FE10BDF0B5982357464546AA
:10586000DE464E46DE4AE0B5D758973B1D009DB058
:105870003D403B4200D1F3E0136D9B059B0F00D0F0
:1058800041E1802219A8520001210280838005F0A5
:10589000DBFBC0224D21D34B92001A6502910439E3
:1058A0000191403988460C31099140310891043901
:1058B000079134390691403105910439052304914B
:1058C00040398B4608390391C74999461791C74912
:1058D00045220A91C6490D260B91C649C64C109126
:1058E000C6493C330F91C6490E91C6490D91C64930
:1058F0000C91C6491691C6491491C6491591C649DD
:105900001391C6491291C6491191C6498A46790533
:1059100000D4E3E08022B34BC34892051A65437F6D
:1059200019AD99468378C68A984600F09BFF0822F5
:1059300000212800FDF774FE4A460223AA70424661
:105940006B702A716B71012128001B9605F07CFB9E
:105950000F99179B02910E99994601910D99250077
:1059600088460C990A9A099116990B9B08911499EB
:10597000109E07911599069113990591129904911A
:1059800011998B4651460391F90600D4A9E0944B36
:105990009D6D01232B4200D05EE101239A46914B7D
:1059A000B846032499462F00A04E03E00234203667
:1059B000212C19D0002F00D10FE15546631E9D40C8
:1059C0003D4200D0E3E05546A5403D42EED04B4677
:1059D00030009D6501F050F8002800D0BAE0AF43D8
:1059E00002342036212CE5D13D1E474600D066E129
:1059F00008240599099B029104999946D846089A6A
:105A0000079B069E039D01913C426DD1790605D509
:105A1000802091461D0073490005086520231A0067
:105A20003A403B4200D043E17B070FD56C4B9B6C67
:105A30007F4B002B09D0C02319A89B0003807D4B0E
:105A400001214360826005F0FFFA4D46BD4200D05F
:105A500029E11DB0F0BCBB46B246A946A046F0BD48
:105A60004C21029104390423802401914039884655
:105A70000C3109914031089104390791343906916C
:105A8000403105910439049140398B46083903911E
:105A9000694999461791694944220A9104390B9141
:105AA00067490C26109167493C330F9104390E91D8
:105AB00040390D916449E4000C9164491691043910
:105AC0001491634915916349139104391291403936
:105AD000119108398A46790500D51BE7F90600D5EA
